:100000006F0040016F00C000000000000000000011
:10001000730020309301C00917110000130181BE45
:100020009302C0091303C00963F8620023A0020011
:1000300093824200E3EC62FEEF00C0046F00000018
:1000400000000000B7120000938202C0B713000046
:100050009383F3FF139355003383B200634253023B
:1000600063C063023383C200634C530063CA6300FE
:1000700013935500B3826200B382C2002380A200B2
:1000800067800000030580099305F0001306F00067
:08009000EFF05FFB6F000000C0
:0100980093D4
:00000001FF
