:100000006F0040016F00C000000000000000000011
:10001000730020309301000917110000130181BE05
:10002000930200091303000963F8620023A0020091
:1000300093824200E3EC62FEEF0000046F000000D8
:1000400000000000B7120000938202C013030000FA
:10005000930300006308B3009382020213031300AA
:10006000E34CB3FE9382120093831300E3CCC3FEF0
:100070002380A200678000000305C0089305F000FC
:0C0080001306F000EFF01FFC6F00000002
:01008C0093E0
:00000001FF
