:100000006F0040016F00C000000000000000000011
:10001000730020309301401F17110000130181BEAF
:100020009302401F1303401F63F8620023A00200E5
:1000300093824200E3EC62FEEF00C0146F00000008
:1000400000000000B7120000938202C037130000C6
:100050001303F3FF2380A20093821200E35C53FE9C
:1000600067800000B7120000938202C013030000F3
:10007000930300006308B30093820202130313008A
:10008000E34CB3FE9382120093831300E3CCC3FED0
:100090002380A20067800000130101FC232E1102BF
:1000A000232C810213040104232CC4FC232AD4FC36
:1000B0002328E4FC2326F4FC93070500A30FF4FC9B
:1000C00093870500230FF4FC8347F4FD1385070095
:1000D000EFF05FF7832784FD2326F4FE832744FD9A
:1000E0002324F4FE6F0080038347E4FD0326C4FE4F
:1000F000832544FD13850700EFF0DFF68347E4FD19
:100100000326C4FE8325C4FC13850700EFF09FF58A
:100110008327C4FE938717002326F4FE0327C4FE1B
:10012000832704FDE342F7FC6F0080038347E4FD6F
:10013000032684FD832584FE13850700EFF09FF2DC
:100140008347E4FD032604FD832584FE1385070011
:10015000EFF05FF1832784FE938717002324F4FEDA
:10016000032784FE8327C4FCE3D2E7FC13000000CE
:10017000130000008320C103032481031301010441
:1001800067800000130101FD232611022324810250
:10019000130401039307C006A307F4FE930730F985
:1001A0002307F4FE930710002324F4FE9307800036
:1001B0002322F4FE930780012320F4FE9307B0016D
:1001C000232EF4FC8345E4FE0345F4FE8327C4FD9F
:1001D000032704FE832644FE032684FEEFF0DFEBB4
:1001E000130000008320C1020324810213010103D4
:0401F0006780000024
:00000001FF
