:10000000930000501301b007238020001301500a11
:10001000238220001301a00d238420001301100669
:10002000238620001301c002238820009300006073
:100030001301c000238020001301300a2382200016
:100040001301c001238420001301400823862000ef
:100050001301f0002388200093015000930000500a
:100060009302006093040070638c010213f5110089
:1000700003c1000003c30200630605006f02c00253
:100080006f0080006f020003238084009381f1ffe2
:100090009380400093824200938444006ff0dffc21
:1000a0006f000000000000003344610067000200a0
:1000b00000000000337461006700020000000000cf
:00000001FF