:10000000930000501301b00723a020001301500af1
:1000100023a220001301a00d23a420001301100629
:1000200023a620001301c00223a820009300006033
:100030001301c00023a020001301300a23a22000d6
:100040001301c00123a420001301400823a62000af
:100050001301f00023a820009301500093000050ea
:100060009302006093040070638c010213f5110089
:1000700003c1000003c30200630605006f02c00253
:100080006f0080006f02000323a084009381f1ffc2
:100090009380400093824200938444006ff0dffc21
:1000a0006f000000000000003344610067000200a0
:1000b00000000000337461006700020000000000cf
:00000001FF